:100000000C94F80C0C94380D0C94380D0C94380D9D
:100010000C94380D0C94380D0C94380D0C94380D4C
:100020000C94380D0C94380D0C94380D0C94380D3C
:100030000C94380D0C94380D0C94380D0C94380D2C
:100040000C94380D0C9412680C94380D0C94380DE7
:100050000C94380D0C94E2620C94380D0C94CC6125
:100060000C94380D0C94B8680C94AE680C94380D50
:100070000C94380D0C94380D0C94380D0C94380DEC
:100080000C9480680C94380D0C94380D0C94380D39
:100090000C94380D0C94380D0C94380D0C94380DCC
:1000A0000C94380D0C94380D0C9452680C94380D47
:1000B0000C94380D0C94380D0C94380D0C94380DAC
:1000C0000C94380D0C94380D0C94380D0C94380D9C
:1000D0000C94380D0C94380D0C94380D0C94380D8C
:1000E0000C94380D084AD73B3BCE016E84BCBFFD53
:1000F000C12F3D6C74319ABD56833DDA3D00C77FF8
:1001000011BED9E4BB4C3E916BAAAABE0000008090
:100110003F05A84CCDB2D44EB93836A9020C50B91F
:10012000918688083CA6AAAA2ABE000000803F004B
:100130000C94E2680C94E60D0C94F40D0C941D0ED6
:100140000C947E150C940B0E0C94190E0C94260E28
:100150000C94010E0C94F80D0C94210E0C94F214D6
:100160000C94EC0D0C94270E0C945A150C94F00D75
:100170000C94E6140C9456150C94FB0D0C94361547
:100180000C9434150C9458150C9432150C94130ED1
:100190000C9412150C940F0E0C9410150C947C15E5
:1001A0000C94050E0C947A150C942B0E4E414E496E
:1001B0004E495459494E46CDCCCC3D0AD7233C1725
:1001C000B7D13877CC2B329595E6241FB14F0A0072
:1001D0000020410000C84200401C4620BCBE4CCA62
:1001E0001B0E5AAEC59D74434F4D4D554E4943416C
:1001F00054494F4E0044525952554E004552524FA9
:10020000525300494E464F004543484F00656368CE
:100210006F3A004572726F723A0020440020204D00
:10022000323030205300202844697361626C656469
:10023000293A0046696C616D656E7420736574744B
:10024000696E67730020204D3230312058004D61B7
:100250007820416363656C65726174696F6E2028F4
:10026000756E6974732F7332290020204D3230333C
:100270002058004D6178206665656472617465730D
:100280002028756E6974732F732900205200202076
:100290004D323034205000416363656C6572617487
:1002A000696F6E2028756E6974732F733229202848
:1002B000503C7072696E742D616363656C3E2052B0
:1002C0003C726574726163742D616363656C3E207A
:1002D000543C74726176656C2D616363656C3E2974
:1002E00000204A0020540020530020204D32303599
:1002F000204200416476616E6365642028423C6D53
:10030000696E5F7365676D656E745F74696D655F57
:1003100075733E20533C6D696E5F666565647261FE
:1003200074653E20543C6D696E5F74726176656CD5
:100330005F66656564726174653E204A3C6A756EED
:10034000635F6465763E2900204400204900202038
:100350004D333031205000486F74656E6420504931
:10036000440020496E76616C69642065787472750A
:10037000646572200020204D323036205800486FCE
:100380006D65206F6666736574004361703A002086
:10039000573A0020573A006F70656E005452494733
:1003A0004745524544003A20007A5F6D696E0079F6
:1003B0005F6D696E00785F6D696E005265706F7277
:1003C00074696E6720656E6473746F7020737461F6
:1003D0007475730A005761726E696E673A20486FD0
:1003E0006D696E672042756D702044697669736F20
:1003F00072203C20310A000202040000F043000099
:100400001644000048430000A0400000A040000047
:1004100000400000F0430000164400004843000084
:1004200000000000000000000000290A002062799E
:100430007465733B20637263200053657474696E46
:1004400067732053746F726564202800486172647A
:10045000636F6465642044656661756C74205365E0
:100460007474696E6773204C6F6164656400202842
:100470006D6D290020204D3134392043203B20551B
:100480006E69747320696E2043656C736975730AB5
:100490000054656D706572617475726520556E6982
:1004A0007473002020473231203B004C696E656137
:1004B0007220556E69747300454550524F4D20644B
:1004C00061746173697A65206572726F722E0A00B9
:1004D000202863616C63756C6174656429210A006E
:1004E00020213D2000454550524F4D20435243208E
:1004F0006D69736D61746368202D202873746F7249
:100500006564292000454550524F4D20436F72725B
:100510007570740A002053697A653A2000496E6448
:1005200065783A2000290A002062797465733B20BF
:1005300063726320002073746F7265642073657446
:1005400074696E677320726574726965766564207C
:1005500028000000FA440000FA440000FA430000BA
:10056000C8410000A0410000A04100007A43000003
:10057000FA43F40100002C01000064000000102781
:100580000000204D61726C696E3D563838290A00B2
:10059000454550524F4D2076657273696F6E206DE0
:1005A00069736D617463682028454550524F4D3D15
:1005B0000020436F756E7420583A004572723A20DD
:1005C0004D415854454D50004D415854454D5020D3
:1005D000747269676765726564004572723A204D8E
:1005E000494E54454D50004D494E54454D50207490
:1005F000726967676572656400202F002042403A87
:100600000020403A0000002100240027002A002D8D
:10061000003000330001010000040107010A01005D
:10062000002200250028002B002E0031003400029B
:10063000010000050108010B010000200023002635
:100640000029002C002F00320000010000030106E9
:100650000109010505050507050808080802020249
:10066000020A0A080804040404010101010101014D
:10067000010303030303030303040707070C0C0C24
:100680000C0C0C0C0C0202020206060606060606FC
:10069000060B0B0B0B0B0B0B0B0102102020080899
:1006A00010204010204080020102010804020101D4
:1006B00002040810204080804020100804020180BD
:1006C0000402018040201008040201080402010114
:1006D000020408102040800102040810204080001D
:1006E000000A0B02090C0D0E0807030401000000AC
:1006F00000000000000000000000000000000000FA
:1007000000000000000000000000001211100000B6
:1007100000000000000000000000000000000000D9
:1007200000000000002001400130013B0140013683
:10073000016001310170012C0190012701B00122FB
:1007400001C0011D01F00118011002130130020E59
:10075000016002090190020401C002FF000003FAD7
:10076000004003F5008003F000D003EB002004E616
:10077000007004E100E004DC004005D700C005D2B1
:10078000004006CD00D006C8008007C3003008BE78
:1007900000F008B900C009B400B00AAF00B00BAA5D
:1007A00000D00CA500000EA000500F9B00C01096BA
:1007B000005012910000148C00C0158700B0178201
:1007C00000B0197D00D01B7800001E730040206E21
:1007D0000090226900F024640040275F0090295AAD
:1007E00000E02B5500102E500020304B00103246F8
:1007F00000E033410090353C00103737007038324C
:1008000000A0392D00B03A2800A03B2300603C1E18
:1008100000103D1900903D1400103E0F00703E0A7C
:1008200000C03E0500003F0000403FFBFF803FF658
:10083000FFC03FF1FF2020506C616E6E6572427503
:100840006666657242797465733A20002046726567
:1008500065204D656D6F72793A200020436F6D7091
:10086000696C65643A204A756E2020362032303239
:10087000340A00204C61737420557064617465649F
:100880003A20323032342D30352D3239207C20411F
:100890007574686F723A20286E6F6E652C206465DF
:1008A0006661756C7420636F6E666967290A004D16
:1008B00061726C696E20322E312E322E330A002086
:1008C000536F6674776172652052657365740A00B0
:1008D000205761746368646F672052657365740A9A
:1008E000002042726F776E206F75742052657365B9
:1008F000740A002045787465726E616C20526573CD
:1009000065740A00506F77657255700A00737461E0
:1009100072740A00656E6473746F70732068697412
:100920003A200024F404D9201BC40C5C0E9804C4A3
:10093000095F0265077101F405F900FB04B3004883
:10094000048700C10369005803550003034500BE36
:10095000023A008402310053022A002902250004D1
:10096000022000E4011C00C8011900AF0117009823
:100970000114008401130071011000610110005185
:10098000010E0043010D0036010B002B010B00206E
:10099000010B00150109000C01090003010800FB0F
:1009A000000800F3000800EB000700E4000600DE8A
:1009B000000600D8000600D2000600CC000500C7E3
:1009C000000500C2000500BD000400B9000400B528
:1009D000000400B1000400AD000400A9000400A55B
:1009E000000300A20003009F0004009B0003009886
:1009F0000003009500020093000300900003008DA7
:100A00000002008B000300880002008600020084C0
:100A1000000300810002007F0002007D0002007BD5
:100A200000020079000200770001007600020074E5
:100A300000020072000100710002006F0002006DF0
:100A40000001006C0002006A0001006900020067FA
:100A50000001006600010065000100640002006200
:100A600000010061000100600001005F0002005D04
:100A70000001005C0001005B0001005A0001005908
:100A80000001005800010057000100560001005508
:100A90000001005400010053000000530001005207
:100AA00000010051000100500001004F0001004E04
:100AB0000000004E0001004D0001004C0001004B01
:100AC0000000004B0001004A0001004900010048FD
:100AD00000000048000100470001004600000046F9
:100AE00000010045000000450001004400010043F2
:100AF00000000043000100420000004200010041EC
:100B000000000041000100400001003F0000003FE4
:100B10000001003E0000003E0001003D0000003DDD
:100B20000001003C0000003C0000003C0001003BD4
:100B30000000003B0001003A0000003A00010039CB
:100B400000000039000100380000003800000038C3
:100B500000010037000000370001003600000036B9
:100B600000000036000100350000003500000035AF
:100B700000010034000000340000003400010033A4
:100B8000000000330000003300010032000000329A
:100B9000000000320001003100000031000000318F
:100BA0000001003000000030000000300001002F84
:100BB0000000002F0000002F0000002F0001002E79
:100BC0000000002E0000002E0001002D0000002D6E
:100BD0000000002D0000002D0001002C0000002C62
:100BE0000000002C0000002C0001002B0000002B56
:100BF0000000002B0000002B0001002A0000002A4A
:100C00000000002A0000002A00010029000000293D
:100C10000000002900000029000000290001002830
:100C20000000002800000028000000280000002824
:100C30000001002700000027000000270000002717
:100C4000000000270001002600000026000000260A
:100C500000000026000000260001002500000025FD
:100C600000000025000000250000002500000025F0
:100C700000010024000000240000002400000024E3
:100C800000000024000100230000002300000023D6
:100C900000000023000000230000002300000023C8
:100CA00000010022000000220000002200000022BB
:100CB00000000022000000220001002100000021AD
:100CC00000000021000000210000002100000021A0
:100CD0000000002100010020000000200000002092
:100CE0000000002000000020000000200000002084
:100CF000000000200001001F0000001F0000001F76
:100D00000000001F0000001F0000001F0000001F67
:100D10000001001E0000001E0000001E0000001E5A
:100D200000000024F4D43050C38E20C2A2401782A9
:100D30008B7011127A910D816CD90AA861E108C7F4
:100D4000586607615143061E4B5D05C145A7041A4D
:100D5000411104093D9803713931034036DB0265C6
:100D6000339102D4305402802E1D02632CEE0175A3
:100D70002AC501B028A001102781018F2564012B0D
:100D8000244B01E0223401AC211F018D200D018094
:100D90001FFC00841EED00971DDF00B81CD200E68A
:100DA0001BC600201BBC00641AB200B219A8000ABE
:100DB00019A0006A189900D117910040178B00B54F
:100DC00016840031167E00B31579003A157300C7FA
:100DD000146F0058146A00EE136600881363002530
:100DE000135E00C7125B006C12570015125400C14D
:100DF00011510070114F0021114B00D61049008D88
:100E00001047004610440002104200C00F4000800E
:100E10000F3E00420F3C00060F3B00CB0E38009304
:100E20000E37005C0E3500270E3400F30D3200C182
:100E30000D3100900D3000600D2E00320D2D00059B
:100E40000D2C00D90C2B00AE0C2900850C29005C60
:100E50000C2700350C27000E0C2600E80B2400C4DC
:100E60000B2400A00B23007D0B23005A0B2100391B
:100E70000B2100180B2000F80A1F00D90A1E00BB26
:100E80000A1E009D0A1D00800A1D00630A1C0047FF
:100E90000A1B002C0A1B00110A1A00F7091A00DDB0
:100EA000091900C4091900AB091900920917007B40
:100EB000091800630917004C0916003609160020AE
:100EC0000916000A091500F5081500E0081400CC01
:100ED000081400B8081400A4081400900813007D3A
:100EE0000812006B0813005808120046081200345C
:100EF000081100230811001208110001081100F068
:100F0000071000E0071000D0071000C0071000B065
:100F1000070F00A107100091070E0083070F007450
:100F2000070F0065070E0057070E0049070E003B2C
:100F3000070D002E070E0020070D0013070D0006F9
:100F4000070D00F9060C00ED060D00E0060C00D4BC
:100F5000060C00C8060C00BC060C00B0060C00A471
:100F6000060B0099060C008D060B0082060B00771D
:100F7000060B006C060B0061060A0057060B004CBE
:100F8000060A0042060A0038060A002E060A002455
:100F9000060A001A060A001006090007060A00FDE4
:100FA000050900F4050900EB050900E2050900D96F
:100FB000050900D0050900C7050900BE050900B5EF
:100FC000050800AD050800A50509009C050800946A
:100FD0000508008C050800840508007C05080074DD
:100FE0000508006C050700650508005D050700564B
:100FF0000508004E050700470507004005080038B2
:10100000050700310507002A050700230507001C16
:10101000050600160507000F050700080506000273
:10102000050700FB040600F5040700EE040600E8CF
:10103000040600E2040700DB040600D5040600CF26
:10104000040600C9040600C3040600BD040600B778
:10105000040600B1040500AC040600A6040600A0C6
:101060000405009B04060095040500900406008A10
:1010700004050085040500800406007A0405007557
:10108000040500700405006B04050066040500619A
:101090000405005C04050057040500520405004DDA
:1010A00004050048040500430405003E0404003A1A
:1010B00004050035040500300404002C0405002755
:1010C000040400230405001E0404001A040400168E
:1010D000040500110404000D0404000904050004C3
:1010E00004040000040400FC030400F8030400F4FA
:1010F000030400F0030400EC030400E8030400E42C
:10110000030400E0030400DC030400D8030400D45B
:10111000030400D0030400CC030400C8030300C58B
:101120000303005D2E00006E23000013180000AFC3
:101130000E00003D08000063040000450200002787
:101140000100006F6B00496E76616C696420657800
:101150007472756465720A00454550524F4D204FB8
:101160004B0A00486F6D65202573204669727374C1
:1011700000546F6F206661722066726F6D204D495A
:101180004E2F4D41580A00000000000000000000F2
:10119000000000206661696C656421204261642062
:1011A0006865617465722069640A00504944204191
:1011B00075746F74756E650023646566696E65206D
:1011C00044454641554C545F004B6420004B692018
:1011D000004B7020002066696E6973686564212089
:1011E00050757420746865206C617374204B702C8A
:1011F000204B6920616E64204B6420636F6E7374B2
:10120000616E74732066726F6D2062656C6F7720FB
:10121000696E746F20436F6E666967757261746979
:101220006F6E2E680A00504944204175746F7475C2
:101230006E6500206661696C6564212074696D6566
:101240006F75740A00504944204175746F74756E4F
:101250006500206661696C6564212054656D706568
:1012600072617475726520746F6F20686967680AAF
:1012700000504944204175746F74756E6500204BB1
:10128000643A2000204B693A2000204B703A20003D
:1012900020436C617373696320504944200A002025
:1012A00054753A2000204B753A2000206D61783A41
:1012B0002000206D696E3A200020643A20002062F0
:1012C0006961733A20002073746172740A00504996
:1012D00044204175746F74756E6500206661696C99
:1012E0006564212054656D70657261747572652046
:1012F000746F6F20686967680A005049442041751F
:10130000746F74756E6500206F7574206F6620723F
:10131000616E67650A00536572766F2000206F75F5
:1013200074206F662072616E67650A00536572767D
:101330006F20003A200020536572766F200020460F
:101340006C6F773A2000250A0046523A0020580078
:101350004F4646004F4E003B200020204D61783A1A
:101360002000200020204D696E3A2000203B200004
:1013700020204D3231312053003F4A206F757420B8
:101380006F662072616E67652028302E30312074C0
:101390006F20302E33290A002F2F00434F4E46492D
:1013A000475F4558504F5254004D454154504143BA
:1013B0004B00434F4F4C45525F54454D50455241B1
:1013C00054555245004348414D4245525F54454DA6
:1013D000504552415455524500424142595354459B
:1013E0005050494E470041524353004D4F54494FCE
:1013F0004E5F4D4F44455300544845524D414C5F5C
:1014000050524F54454354494F4E00455854454E51
:101410004445445F4D323000435553544F4D5F4671
:1014200049524D574152455F55504C4F4144004C35
:10143000464E5F5752495445004C4F4E475F464910
:101440004C454E414D45004155544F5245504F5229
:10145000545F53445F5354415455530053445F57B2
:10146000524954450052455045415400534443416C
:1014700052440050524F4D50545F535550504F52AC
:101480005400484F53545F414354494F4E5F434FBC
:101490004D4D414E445300454D455247454E4359ED
:1014A0005F50415253455200434153455F4C4947B9
:1014B00048545F4252494748544E45535300544F95
:1014C00047474C455F4C494748545300534F465497
:1014D000574152455F504F574552004255494C4481
:1014E0005F50455243454E54004C4556454C494E7D
:1014F000475F44415441005A5F50524F42450052A9
:10150000554E4F5554004155544F4C4556454C008F
:101510005052494E545F4A4F420050524F47524535
:101520005353004155544F5245504F52545F544508
:101530004D50004155544F5245504F52545F504FFB
:101540005300564F4C554D45545249430045455064
:10155000524F4D0042494E4152595F46494C455FFA
:101560005452414E534645520053455249414C5FF7
:10157000584F4E5F584F4646004649524D574152CC
:10158000455F4E414D453A4D61726C696E20322E79
:10159000312E322E3320284A756E202036203230EC
:1015A00032342031383A34323A31372920534F55CA
:1015B0005243455F434F44455F55524C3A67697407
:1015C0006875622E636F6D2F4D61726C696E46692E
:1015D000726D776172652F4D61726C696E20505229
:1015E0004F544F434F4C5F56455253494F4E3A313B
:1015F0002E30204D414348494E455F545950453A9D
:101600003344205072696E746572204558545255A7
:101610004445525F434F554E543A31205555494445
:101620003A63656465326132662D343161322D343E
:101630003734382D396231322D63353563363266B1
:101640003336376666004D3131332053006F66669E
:101650000008020302FC01F501E701444542554739
:101660003A006F6B00363726032E303E0E3C3D3875
:10167000121A1C180A43090844000150726F74655D
:10168000637465642050696E0A003F43616E6E6F3B
:101690007420777269746520746F20494E505554D8
:1016A0000A00496E76616C69642050696E204D6F46
:1016B00064650A002569730025696D20256973003A
:1016C0002569682025696D202569730025696420D6
:1016D0002569682025696D202569730025697920B1
:1016E000256964202569682025696D2025697300B6
:1016F0005072696E742074696D653A200047322F0C
:1017000047332062616420706172616D6574657237
:10171000730A00486F6D696E67204661696C656485
:1017200000FFFFFFDB0FC93F45BCDA3F8FB302402C
:10173000FCF0274056946140FE4B9B4084A5D84066
:10174000E0231841346A5641E859974164DBD5419A
:101750006E271742B4B75542CE1A9742C8AED5424B
:10176000B5885A43D40684BFA65FA7BF7443E0BFC1
:1017700010B11AC01C2C58C0E8F697C0B849D6C0A2
:101780004E4E17C124D355C1802497C1A0B5D5C1F1
:10179000121A17C244AE55C2781797C26CACD5C2A4
:1017A00067885AC3220A00556E6B6E6F776E20638E
:1017B0006F6D6D616E643A202200204500205A0052
:1017C00020590020204D3932205800537465707321
:1017D0002070657220756E697400627573793A20A5
:1017E00070617573656420666F7220696E707574C0
:1017F0000A00627573793A207061757365642066BA
:101800006F7220757365720A00627573793A207081
:10181000726F63657373696E670A00746F6F206D12
:1018200075636820696E6163746976652074696D9B
:1018300065202D2063757272656E7420636F6D6D07
:10184000616E643A20002121204B494C4C20636199
:101850007573656420627920004D31313220536800
:101860007574646F776E005072696E746572207360
:10187000746F707065642064756520746F20657284
:10188000726F72732E2046697820746865206572C5
:10189000726F7220616E6420757365204D3939391D
:1018A00020746F20726573746172742E20285465E1
:1018B0006D706572617475726520697320726573ED
:1018C00065742E2053657420697420616674657296
:1018D0002072657374617274696E67290A004E6FB5
:1018E00020436865636B73756D2077697468206C3D
:1018F000696E65206E756D6265722C204C61737423
:10190000204C696E653A2000636865636B73756D82
:10191000206D69736D617463682C204C6173742051
:101920004C696E653A20004C696E65204E756D629B
:101930006572206973206E6F74204C617374204C43
:10194000696E65204E756D6265722B312C204C617D
:101950007374204C696E653A20004D31313000536C
:10196000657269616C20737461747573206D69733D
:101970006D617463680A006F6B0A00526573656E6F
:10198000643A200020453A00205A3A0020593A0093
:10199000583A004572726F722077726974696E6787
:1019A00020746F20454550524F4D210A0045002CB0
:1019B0002073797374656D2073746F707065642122
:1019C000204865617465725F49443A20005072692D
:1019D0006E7465722068616C7465642E206B696C2E
:1019E0006C28292063616C6C6564210A0000E26840
:1019F00011241FBECFEFD1E2DEBFCDBF00E00CBF90
:101A000084B780937A0C14BE0FB6F894A895809191
:101A10006000886180936000109260000FBE12E049
:101A2000A0E0B2E0E4E8F4EF00E00BBF02C00790F2
:101A30000D92A83EB107D9F72CE0A8EEB2E001C0A4
:101A40001D92AA37B207E1F71CE0C8EFDCE000E026
:101A500006C021970109802FFE010E94FB79C73F34
:101A6000D10780E00807A9F70E9481690C94407AA9
:101A70000C940000FC0120818091DA0B9091DB0B2B
:101A8000922728E0AC01880F991F57FD07C021500D
:101A9000C9F79093DB0B8093DA0B0895F1E28F275F
:101AA000F0E19F27F4CFCF92DF92EF92FF920F9356
:101AB0001F9323E231E141E0F901C590D590E59013
:101AC000F490C616D706E806F90658F49695879559
:101AD00077956795440F2C5F3F4F51E12F333507C2
:101AE00059F74093D903613271058105910568F476
:101AF000E3E2FDE06591749190E080E01F910F9129
:101B0000FF90EF90DF90CF900895DC01CB0180979C
:101B1000A109B109811528E09207A105B105C8F016
:101B200044E0949F900111242D5D364FF9013296C7
:101B300045915491F901259134916627859FF001D3
:101B4000849F000CE11DF61F11242E1B3F0BB901D1
:101B5000D3CF8C019D0136952795179507950C7F5E
:101B60000D5D124FF80125913491F801329645919F
:101B70005491682F6770649FC001659F900D112478
:101B800043E0969587954A95E1F7281B390BDFCFFF
:101B90008150823108F05AC0E82FF0E08827EC52DB
:101BA000F24F8F4F0C94FB79F40DF80DE60DEC0D10
:101BB000F00D260EFB0D010E050E0B0E0F0E130E73
:101BC000190E1D0E260E210E270E2B0E8091800061
:101BD0008F77809380000895809180008F7DF9CF6A
:101BE00080918000877FF5CF84B58F7784BD08957D
:101BF00084B58F7DFBCF8091B0008F778093B0004C
:101C000008958091B0008F7DF9CF809190008F77FB
:101C1000809390000895809190008F7DF9CF8091FE
:101C20009000877FF5CF8091A0008F778093A000F0
:101C300008958091A0008F7DF9CF8091A000877FCB
:101C4000F5CF809120018F778093200108958091B6
:101C500020018F7DF9CF80912001877FF5CFCF9331
:101C6000DF93282F30E0F901E152F94F8491F90117
:101C7000E756F94FD491F901ED5AF94FC491CC23AD
:101C8000A1F081110E94C80DEC2FF0E0EE0FFF1FB4
:101C9000E75CF94FA591B491EC91ED2381E090E0E0
:101CA00009F480E0DF91CF91089580E090E0FACFD1
:101CB0001F93CF93DF93282F30E0F901E152F94FC2
:101CC0008491F901E756F94FD491F901ED5AF94F92
:101CD000C491CC23A9F0162F81110E94C80DEC2FBE
:101CE000F0E0EE0FFF1FE15EF94FA591B4918FB7C1
:101CF000F894EC91111108C0D095DE23DC938FBFCE
:101D0000DF91CF911F910895DE2BF8CFCF93DF9312
:101D100090E0FC01E756F94F24918D5A994FFC0150
:101D200084918823C9F090E0880F991FFC01EB5F34
:101D3000F94FA591B491FC01E15EF94FC591D491A1
:101D400061110DC09FB7F8948C91209582238C93DC
:101D50008881282328839FBFDF91CF910895623027
:101D600051F49FB7F8943C91822F809583238C93F4
:101D7000E8812E2BEFCF8FB7F894EC912E2B2C937C
:101D80008FBFEACF3FB7F89480918D0390918E0377
:101D9000A0918F03B091900326B5A89B05C02F3F5B
:101DA00019F00196A11DB11D3FBFBA2FA92F982F81
:101DB0008827BC01CD01620F711D811D911D42E07C
:101DC000660F771F881F991F4A95D1F708958F9244
:101DD0009F92AF92BF92CF92DF92EF92FF926B01F0
:101DE0007C010E94C20E4B015C01C114D104E104CC
:101DF000F104B9F00E94C20E681979098A099B0999
:101E0000683E73408105910580F321E0C21AD10834
:101E1000E108F10888EE880E83E0981EA11CB11C31
:101E2000E4CFFF90EF90DF90CF90BF90AF909F9066
:101E30008F9008952FB7F8946091890370918A0369
:101E400080918B0390918C032FBF08951092C90449
:101E5000ECEDFBE01186108612862C98EDE7F3E09E
:101E60001186108612868091020180728093000193
:101E700008958F929F92AF92BF92CF92DF92EF928E
:101E8000FF920F931F93CF93DF93B4E4A0E06A2FE8
:101E900070E0AB014B0F511D55954795411119C08D
:101EA000E7E2F7E065917491072E000C880B990B1F
:101EB0000E947972DF91CF911F910F91FF90EF9067
:101EC000DF90CF90BF90AF909F908F900895B42FE8
:101ED000E0CFA41711F0B41303C0E3E3F8E0E2CFBE
:101EE0009A0121503109220F331F220F331FF901AC
:101EF000EB5DF84FE590F490F901E75DF84FC5917F
:101F0000D4918E159F0518F3A42FC817D90708F48C
:101F1000BECFF901E95DF84F05911491F901E55D36
:101F2000F84FC590D4908E199F09BC0190E080E0D5
:101F30000E9477724B015C01B601601B710B072E8A
:101F4000000C880B990B0E9479729B01AC01C501B2
:101F5000B4010E94D8724B015C01CE19DF09BE01A9
:101F600090E080E00E9477729B01AC01C501B40152
:101F70000E94C3776B017C01B801110F880B990B8C
:101F80000E9479729B01AC01C701B6010E94C9761B
:101F900091CFFC0190E1A9EFB3E001900D929A95E9
:101FA000E1F70895BC0120916703309168034091E7
:101FB0006703509168032417350731F481E0261731
:101FC000370709F080E008959A01F1CF00C000C002
:101FD0008091950380FF24C089988FEF80931E0322
:101FE0008091950381FF1FC080910B0180958270C5
:101FF000809309018FEF80931F038091950382FFE7
:1020000019C08F988FEF809320038091950383FFF1
:1020100014C016988FEF8093210300C000C008956C
:10202000899A81E0DBCF80910B0182708093090156
:1020300081E0E1CF8F9A81E0E6CF169A81E0EBCF85
:1020400080911D03877F80931D03129A81E008957C
:10205000129880911D03886080931D03089521E0EC
:1020600030E0082E02C0220F331F0A94E2F72095B9
:10207000309590911D03292320931D03813061F039
:1020800020F0823099F081E008955F9A8091940366
:102090008E7F80939403F7CF8091080180958170A3
:1020A00080930601809194038D7FF3CF8A9A80916B
:1020B00094038B7FEECF80E00E942F1081E00E947E
:1020C0002F1082E00E942F100C942010813089F094
:1020D00070F08230A1F021E030E001C0220F8A953B
:1020E000EAF780911D03822B80931D0308955F986A
:1020F000F2CF90910801917090930601ECCF8A98ED
:10210000EACFAF92BF92CF92DF92EF92FF920F93FE
:102110001F93CF93DF93C3E7D4E00BE414E083E88D
:10212000A82E84E0B82EC12CD12C7601C3946991DD
:102130007991899199910E947772288939894A8980
:102140005B890E94D8720E943C78F8016193719378
:10215000819391938F01C616D706E806F90610F40D
:102160006B017C01AC16BD0611F76FEF7FEFCB0161
:10217000A70196010E94657620935B0430935C046E
:1021800040935D0450935E04DF91CF911F910F91B6
:10219000FF90EF90DF90CF90BF90AF900895CF92D7
:1021A000DF92EF92FF928091F003882309F457C0E9
:1021B000C090EC03D090ED03E090EE03F090EF03BD
:1021C00020E030E0A901C701B6010E9472728823A5
:1021D00009F445C020E030E040E05FE3C701B6010C
:1021E0000E94D8729B01AC010E94D8722BED3FE097
:1021F00049E450E40E94D8729B01AC0160E070E0B9
:1022000080E89FE30E94C3776B017C01C092DC03EE
:10221000D092DD03E092DE03F092DF0360911102C1
:1022200070911202072E000C880B990B0E94797294
:102230002AE037ED43E25CE30E94D872A7019601E1
:102240000E94D872609335027093360280933702F1
:1022500090933802FF90EF90DF90CF900895C12CBB
:10226000D12C80E8E82E8FE3F82ED0CF90916F002C
:1022700081E091FD02C080E0089590916F009D7F04
:1022800090936F000895EFE6F0E080818260808394
:1022900008950E94361191E09093690381110C9486
:1022A00043110895CF92DF92EF92FF92CF93DF9385
:1022B000C82F0E94361194E0C99FE0011124FE014D
:1022C000E750FC4FC080D180E280F38081110E94F2
:1022D0004311C05ADB4FC701B6010E9479722881B1
:1022E00039814A815B810E94D872DF91CF91FF9042
:1022F000EF90DF90CF9008958F3010F48F5F0895A6
:102300008F500895CF93DF9390915E0C80915D0C78
:10231000891740F0891B41F4D0E0C0E0CE01DF9185
:10232000CF910895805FF6CF90915A0C992351F088
:10233000833030F48FEF890F19F080935A0CECCF73
:1023400010925A0CC0915E0C87E4C89FE0011124E2
:10235000CF59D94F888180FDDFCF80915E0C0E94DC
:102360007C1180935B0C90915E0C80915C0C9813B7
:10237000D5CF80915B0C80935C0CD0CFFC01708139
:10238000472F50E0062E02C0559547950A94E2F774
:1023900040FF14C040911C0350E0062E02C055952A
:1023A00047950A94E2F740FF09C021E030E001C000
:1023B000220F6A95EAF72095272320830895CF936B
:1023C000DF931F92CDB7DEB787E0898360E0CE014F
:1023D00001960E94BE1161E0CE0101960E94BE11DD
:1023E00062E0CE0101960E94BE1189810F90DF91BB
:1023F000CF910895CF93DF9324E0829FC0011124F1
:10240000EC01C653D44FFC01E052FC4F875F9B4F59
:10241000DC012D913D914D915C91608171818281B2
:1024200093810E94C976688379838A839B83DF9135
:10243000CF9108958F929F92AF92BF92CF92DF92E9
:10244000EF92FF92CF93DF9320911502222309F49C
:102450008EC0EC0180911C03E82E80FF2CC0809080
:10246000170290901802A0901902B0901A022881C9
:1024700039814A815B81C501B4010E94297918160E
:1024800024F488829982AA82BB8280902302909051
:102490002402A0902502B0902602288139814A8129
:1024A0005B81C501B4010E94727287FF04C08882FB
:1024B0009982AA82BB82E1FE2CC080901B02909080
:1024C0001C02A0901D02B0901E022C813D814E8105
:1024D0005F81C501B4010E942979181624F48C8209
:1024E0009D82AE82BF828090270290902802A090A9
:1024F0002902B0902A022C813D814E815F81C50165
:10250000B4010E94727287FF04C08C829D82AE82E9
:10251000BF82E2FE2CC0C0901F02D0902002E0904B
:102520002102F0902202288539854A855B85C70102
:10253000B6010E942979181624F4C886D986EA863D
:10254000FB86C0902B02D0902C02E0902D02F090E0
:102550002E02288539854A855B85C701B6010E9410
:10256000727287FF04C0C886D986EA86FB86DF912F
:10257000CF91FF90EF90DF90CF90BF90AF909F9062
:102580008F900895CF93DF9380910F03659B4DC08B
:10259000816080930F039091030180910F0391FD5F
:1025A00046C08D7F80930F0380910F034B9941C0EC
:1025B0008B7F80930F03C0915A03C0FF10C080919E
:1025C000950380FF0CC080910F0380FF08C08091AD
:1025D000360481608093360480E00E944911C1FF77
:1025E00010C08091950381FF0CC080910F0381FF83
:1025F00008C08091360482608093360481E00E9496
:102600004911C2FF18C08091950382FF14C08091C8
:102610000F0382FF10C080913604846080933604DB
:1026200082E0DF91CF910C9449118E7FB2CF82600E
:10263000B9CF8460BECFDF91CF9108950F931F93E0
:102640008091F803813019F50E941A0F00910B0355
:1026500010910C0320910D0330910E03601B710B40
:10266000820B930B28EE33E040E050E00E94657649
:1026700060910703709108038091090390910A0308
:10268000620F731F841F951F1F910F910895609112
:10269000F4037091F5038091F6039091F703D6CF80
:1026A0001092F80310920B0310920C0310920D037A
:1026B00010920E031092F4031092F5031092F60399
:1026C0001092F70310920703109208031092090367
:1026D00010920A0308958091F8038130F1F082305E
:1026E000C9F40E941E13609307037093080380933C
:1026F000090390930A0381E08093F8030E941A0F64
:1027000060930B0370930C0380930D0390930E035F
:1027100081E008950E945013EECF80E008958091EB
:10272000F8038150823070F41092F8030E941A0F5F
:102730006093F4037093F5038093F6039093F7038B
:1027400081E0089580E008952091E40B3091E50B3D
:10275000263531053CF420918503309186032630DF
:10276000310524F0882329F00C946B1361110C942B
:102770008F13089590E080E008952091730C8330CA
:1027800021F425FD0CC024FD0CC030E0A90102C0DD
:10279000559547958A95E2F7CA018170089581E0C1
:1027A000089580E0089580911D0484FD0BC0809100
:1027B0001F0487FD07C090912004937081E019F4F5
:1027C00080E0089581E008952FEB280F2A3108F06A
:1027D00047C0E22FF0E080911D0490911E04A0916B
:1027E0001F04B091200404C0B695A79597958795CE
:1027F0002A95D2F780FD02C081700895E351FD4F04
:10280000E081EE2341F18091CB049091CC04E80F5C
:10281000F92FF11D808190ED980F9A3030F08E32B3
:1028200051F4818180538A3098F4F0932204E0932C
:10283000210481E008958D3211F08B3249F48181B9
:1028400090ED980F9A3088F38E3211F48281EACF9E
:10285000F0E0E0E0EACF1092220410922104E9CFE8
:1028600080E008950E94E413882341F081E02091E4
:10287000210430912204232B09F480E0089581E0A3
:102880000895DC01EC918E2F90E0FC01EE0FFF1F0C
:10289000E80FF91FE85FF34F80818F7780830895F9
:1028A000CF93DF93EC01E8818FEFE83108F066C049
:1028B000F0E09F01220F331F6115710559F0D90116
:1028C000AE0FBF1FA85FB34F962F9F776C916078B4
:1028D000692B6C93E20FF31FE85FF34F808161E097
:1028E0008F770E94860E19821A8288812CE0622FCF
:1028F0000E94DB79829FB001112430E020E0AB011F
:10290000420F531FFA01EE0FFF1FE40FF51FE85FA0
:10291000F34F908197FD25C02F5F3F4F2C3031053D
:1029200071F7882379F08130E1F41092A00082E001
:102930008093A1001092A5001092A40089BB8093FF
:1029400072000FC01092900082E08093910010926C
:10295000950010929400C19A8091710082608093DA
:1029600071008881282F30E0F901EE0FFF1FE20F80
:10297000F31FE85FF34F908190689083DF91CF91D0
:102980000895CF93DF93EC01E62F660FFF0BE15222
:10299000F94FE491E250E13108F0B0C0F0E088274F
:1029A000EB52FB4E8F4F0C94FB79E6147E157E158F
:1029B0007E157E151015F2143415321512155815A2
:1029C000561536157E157C157A155A1582E1E8E400
:1029D000F2E0DE0101900D928A95E1F7CE01DF91E0
:1029E000CF91089581E020EB30E03983288321EBFB
:1029F00030E03B832A831D821C8223EB30E03F833F
:102A00002E8324EB30E0398728871B861A861D86A3
:102A10001C8692E09E878F8781E0888B198ADECFA3
:102A200080E0E1CF81E08F5F20E930E039832883C7
:102A300021E930E03B832A8322E930E03D832C8387
:102A400028E930E03F832E832AE930E03987288760
:102A50002CE930E03B872A8726E930E03D872C8748
:102A600093E0D8CF80E0DFCF80E0DECF81E08F5FE2
:102A700020EA30E03983288321EA30E03B832A834F
:102A800022EA30E03D832C8328EA30E03F832E8326
:102A90002AEA30E0398728872CEA30E03B872A870A
:102AA00026EA30E03D872C8794E0B4CF80E0DFCF8A
:102AB00080E0DECF81E08F5F20E231E03983288340
:102AC00021E231E03B832A8322E231E03D832C8303
:102AD00028E231E03F832E832AE231E039872887DC
:102AE0002CE231E03B872A8726E231E03D872C87C4
:102AF00095E090CF80E0DFCF80E0DECF82E1FE0185
:102B000011928A95E9F76ACFEF92FF920F931F9384
:102B1000CF93DF93CDB7DEB762970FB6F894DEBFE1
:102B20000FBECDBF6115710579F460E062960FB6F6
:102B3000F894DEBF0FBECDBFDF91CF911F910F91F3
:102B4000FF90EF900C94580E6F3F710511F461E007
:102B5000EDCF8B01F82E682FCE0101960E94C11493
:102B60008989882309F477C0E981FA819F8588895A
:102B7000911134C0608190E023E030E0A901481B4E
:102B8000590B440F551F042E01C0220F0A94EAF777
:102B90002095262362E070E001C0660F4A95EAF7AF
:102BA000262B2083FC013396EE0FFF1F21E030E03F
:102BB0002C0F3D1FE20FF31F0190F081E02D1183D8
:102BC000008362960FB6F894DEBF0FBECDBFDF91D3
:102BD000CF911F910F91FF90EF9008952A892111B5
:102BE000F0CFAFEFB0E0923029F0AD85BE850D900B
:102BF000BC91A02D608190E023E030E0A901481B4A
:102C0000590B440F551F042E01C0220F0A94EAF7F6
:102C10002095262362E070E001C0660F4A95EAF72E
:102C2000262B20830396880F991FE1E0F0E0EC0F3C
:102C3000FD1F8E0F9F1FFC01E080F18098010E9414
:102C4000B9762FEF30E040E050E00E946576F70162
:102C500031832083B6CF61E00F37110508F460E0BF
:102C60008F2D64CFAF92BF92CF92DF92EF92FF92FF
:102C70000F931F93CF935C016B018A0185519D4F88
:102C80007C01DC01CC91C7FF3DC0FB0111821082A9
:102C9000CF5FD701CC93CC300CF053C08CE08A9D31
:102CA000F0018B9DF00D1124CF018C0F911DC7FDFC
:102CB0009A952091500C2817190609F00CF441C080
:102CC000F60120813181FC01EE0FFF1FE80FF91F93
:102CD000E85FF34F81819281820F931FD801119693
:102CE0009C938E93808187FF3DC061E08F77CF9169
:102CF0001F910F91FF90EF90DF90CF90BF90AF901A
:102D00000C94580E8CE08A9DF0018B9DF00D1124DF
:102D1000CF018C0F911DC7FD9A952091500C28175B
:102D2000190609F00CF4B4CFFC01EE0FFF1FE80FF9
:102D3000F91FE85FF34F808160E08F770E94580EA3
:102D4000A7CFF6018081918104968034FCE99F072A
:102D500010F480E49CE9D80111969C938E938FEF38
:102D6000F7018083CF911F910F91FF90EF90DF903B
:102D7000CF90BF90AF9008959091C00095FFFCCF89
:102D80008093C60008958F929F92AF92BF92EF9268
:102D9000FF921F93CF93DF93CDB7DEB7A0970FB607
:102DA000F894DEBF0FBECDBF611571058105910599
:102DB00091F120E04AE0842E912CA12CB12C11E05D
:102DC000120FEE24E394F12CEC0EFD1EE20EF11C2A
:102DD00027FDFA94A50194010E946576F7016083AE
:102DE000B901CA01212F611571058105910539F7D6
:102DF000115018F1E1E0F0E0EC0FFD1FE10FF11DC3
:102E000017FDFA95908187E39A3008F480E3890FE3
:102E10000E94BC16EDCF80E3A0960FB6F894DEBFFB
:102E20000FBECDBFDF91CF911F91FF90EF90BF906C
:102E3000AF909F908F900C94BC16A0960FB6F8940C
:102E4000DEBF0FBECDBFDF91CF911F91FF90EF90FE
:102E5000BF90AF909F908F900895CF92DF92EF92A6
:102E6000FF926B017C01F7FE0BC0F094E094D094CC
:102E7000C094C11CD11CE11CF11C8DE20E94BC1647
:102E8000C701B601FF90EF90DF90CF900C94C3166E
:102E90000C942D178F929F92AF92BF92CF92DF9298
:102EA000EF92FF926B017C0120E030E0A9010E94CB
:102EB000727287FF07C08DE20E94BC16F7FAF09489
:102EC000F7F8F0942BE037ED43EA5BE3C701B60176
:102ED0000E94C9764B015C010E943C786B017C0129
:102EE0000E9477729B01AC01C501B4010E94C876B3
:102EF0004B015C01C701B6010E94C3168EE20E941D
:102F0000BC1620E030E040E251E4C501B4010E946B
:102F1000D8726B017C010E943C784B015C010E94DD
:102F2000C316C501B4010E9477729B01AC01C701B1
:102F3000B6010E94C87620E030E040E251E40E94F1
:102F4000D8720E943C78FF90EF90DF90CF90BF90B6
:102F5000AF909F908F900C94C316CF93DF93EC01AA
:102F60008991882319F00E94BC16FACFDF91CF9186
:102F700008950E94AD178DE00E94BC168AE00C9463
:102F8000BC16CF93DF93EC01FE0184912196882338
:102F900019F00E94BC16F8CFDF91CF910895CF921F
:102FA000DF92EF92FF92E1EDFAE080818183C090A1
:102FB000530BD090540BE090550BF090560B8FEFC5
:102FC000C81AD80AE80AF80A8BE799E10E94C117E3
:102FD000C701B6010E9448178AE00E94BC1687E725
:102FE00099E1FF90EF90DF90CF900C94C117CF93B1
:102FF000DF93EB010E94C117BE0190E080E0DF91FA
:10300000CF910C94C316EF92FF920F931F93CF931F
:103010007B018A01C2E48F3F09F0C4E580E20E948F
:10302000BC168C2F0E94BC168AE30E94BC16F701C6
:1030300060817181828193810E944A1789EF95E0B6
:103040000E94C117F80160817181828193810E9481
:103050004A1762E070E080E090E0CF911F910F91FD
:10306000FF90EF900C94E70ECF92DF92EF92FF92D9
:10307000CF93DF93EC01C880D980EA80FB8081EB9D
:1030800095E00E94C117C701B6010E944817CC8085
:10309000DD80EE80FF808CE899E10E94C117C701B6
:1030A000B6010E944817C884D984EA84FB8488E862
:1030B00099E10E94C117C701B6010E9448178AE032
:1030C000DF91CF91FF90EF90DF90CF900C94BC16E2
:1030D0000F931F93CF938C01C62F8AE893E00E9431
:1030E000C117C8010E94C1178AE30E94BC1680E381
:1030F0008C0F0E94BC168AE0CF911F910F910C9407
:10310000BC1683E192E00C94C1178DE092E00C9420
:10311000C117CF93DF930E948518C091CB04D09143
:10312000CC0487EA97E10E94C117CE010E94AD1737
:1031300084EA97E1DF91CF910C94C1170F931F930D
:10314000CF93811116C0C42F8B010E94851887E58B
:1031500093E10E94C117C8010E94C117CC2349F016
:103160008AE30E94BC168AE0CF911F910F910C94C4
:10317000BC16CF911F910F910895CF93C82F41E0B6
:103180000E949E18C11103C0CF910C948518CF9155
:103190000895CF92DF92EF92FF926A017B010E9425
:1031A000C117C701B601FF90EF90DF90CF900C944C
:1031B0004A174F925F926F927F928F929F92AF9237
:1031C000BF92CF92DF92EF92FF920F931F93CF9314
:1031D000DF93CAEBDBE04C845D846E847F840AEC71
:1031E0001BE0F80124813581468157816C817D8106
:1031F0008E819F810E94C9764B015C01F801208578
:10320000318542855385688579858A859B850E94AD
:10321000C9766B017C01F8012081318142815381A3
:10322000688179818A819B810E94C976AB01BC014A
:1032300080E999E10E94C918B501A4018CE899E1DF
:103240000E94C918B701A60188E899E10E94C9182F
:10325000B301A20184E899E1DF91CF911F910F9111
:10326000FF90EF90DF90CF90BF90AF909F908F90A6
:103270007F906F905F904F900C94C918CF93DF931D
:10328000CDB7DEB72C970FB6F894DEBF0FBECDBF1B
:103290000E94D9180E9436119CE0E9EFF3E0DE01AC
:1032A000119601900D929A95E1F781110E944311B8
:1032B000CE0101960E9434182C960FB6F894DEBF0A
:1032C0000FBECDBFDF91CF910895CF93DF936BEC0D
:1032D00077E10E94BD18C3E7D4E04C895D896E890F
:1032E0007F8983EC97E10E94C918488D598D6A8DBA
:1032F0007B8D80EC97E10E94C9184C8D5D8D6E8DA1
:103300007F8D8DEB97E10E94C91848A159A16AA150
:103310007BA18AEB97E10E94C9188AE0DF91CF91E7
:103320000C94BC16CF93C82F41E067E573E00E9470
:103330009E18C11102C00E9485184091FC0B50914B
:10334000FD0B6091FE0B7091FF0B8EE493E00E94E9
:10335000C91821E732EB47E25EE36091000C7091FF
:10336000010C8091020C9091030C0E94C377AB0179
:10337000BC018BE493E00E94C91821E732EB47E2DD
:103380005EE36091040C7091050C8091060C9091A5
:10339000070C0E94D872AB01BC0188E493E00E9444
:1033A000C9188AE0CF910C94BC160E94C9188AE013
:1033B0000C94BC16CF93DF936EE773E00E94BD18A8
:1033C000C0EED3E0488159816A817B8185E793E033
:1033D0000E94C9184C815D816E817F8180EC97E1EC
:1033E0000E94C918488559856A857B858DEB97E1D0
:1033F000DF91CF910C94D519CF93811112C040E089
:1034000063E372E00E949E188091F003811104C072
:1034100086E292E00E94C1178AE00E94BC160E94D8
:103420008518C091F0038DE192E00E94C1176C2FC6
:1034300070E090E080E00E942D174091EC035091E5
:10344000ED036091EE037091EF038AE192E0CF917A
:103450000C94D51963EF72E00E94BD18609183044B
:103460007091840480918504909186040E94777203
:10347000AB01BC018AEE92E00E94C9184091B304EE
:103480005091B4046091B5047091B60487EE92E057
:103490000E94C9184091B7045091B8046091B904D2
:1034A0007091BA0484EE92E00E94C91840913704EA
:1034B000509138046091390470913A0481EE92E0A1
:1034C0000C94D519CF93DF9367E972E00E94BD1881
:1034D000C3E7D4E04CA95DA96EA97FA98EE892E06C
:1034E0000E94C91848AD59AD6AAD7BAD8BE892E03A
:1034F0000E94C9184CAD5DAD6EAD7FAD84EE92E01B
:10350000DF91CF910C94D519CF93DF9363E772E0ED
:103510000E94BD18C3E7D4E04CA15DA16EA17FA1BC
:103520008AE692E00E94C91848A559A56AA57BA51C
:1035300080EC97E10E94C9184CA55DA56EA57FA5FA
:103540008DEB97E10E94C91848A959A96AA97BA9DE
:103550008AEB97E10E94C9188AE0DF91CF910C9421
:10356000BC16CF93DF936EE472E00E94BD18C3E7F0
:10357000D4E0688179818A819B810E947772AB0156
:10358000BC0185E492E00E94C9186C817D818E8126
:103590009F810E947772AB01BC0180EC97E10E9491
:1035A000C918688579858A859B850E947772AB01E9
:1035B000BC018DEB97E10E94C9186C857D858E85D5
:1035C0009F850E947772AB01BC018AEB97E10E9454
:1035D000C9188AE0DF91CF910C94BC16CF93DF938A
:1035E000EB010E94C117BE01DD0F880B990BDF9123
:1035F000CF910C942D171F93CF93DF9300D000D061
:103600001F921F92CDB7DEB7182F6091E40B709117
:10361000E50B072E000C880B990B0E9479726D83C5
:103620007E838F8398878091E00B9091E10BA0912E
:10363000E20BB091E30B89839A83AB83BC83AE0129
:103640004B5F5F4FBE016F5F7F4F80E80E940318A2
:103650006091850370918603072E000C880B990BEF
:103660000E9479726D837E838F8398878091810316
:1036700090918203A0918303B091840389839A83FC
:10368000AB83BC83AE014B5F5F4FBE016F5F7F4F6B
:103690008FEF0E940318609187031F3F39F08CE27F
:1036A0001802F0011124E452F44F628570E081E0C9
:1036B00096E00E94EE1A6091870370E08CEF95E02F
:1036C0000E94EE1A28960FB6F894DEBF0FBECDBF4B
:1036D000DF91CF911F9108950E94C1178AE00C9449
:1036E000BC16EC01162F0E94260F209729F00E948D
:1036F0008518CE010E946C1B0E9481188DEC99E107
:103700000E94C11789EE93E0019739F000C00000D4
:10371000EEE5F9E03197F0F7F7CFF89489EE93E012
:10372000019739F000C00000E6EEF3E03197F0F7C2
:10373000F7CF0E94260F112321F00E945B10A8955D
:10374000FECF0E942010FBCFCF93C82F41E06BEA41
:1037500074E00E949E18C11102C00E94851883EA7D
:1037600094E00E94C1178EE694E00E946C1B41E039
:1037700061E974E08C2F0E949E18C11102C00E9462
:10378000851884E794E00E94C1178C2F0E94FC19D1
:103790008C2F0E9465198C2F0E94841A8C2F0E94F6
:1037A000B11A8C2F0E94621A8C2F0E942A1A8C2F19
:1037B0000E94DA198C2FCF910C949219CF93C82FB5
:1037C000CB010E94C11786EA93E00E94C11787E9E6
:1037D00093E0CC2311F08CE993E0CF910C946C1B17
:1037E0008BEB93E00E94C1178CB165EB73E085FB16
:1037F000882780F90E94DE1B809103016FEA73E045
:10380000869581700E94DE1B89B169EA73E083FBB3
:10381000882780F90C94DE1B8091D10A9091D20AFE
:103820002FEF3FEF981751F0E92FF0E0EF52F54FEF
:10383000228130E09F5F9F779093D20AC90108955B
:10384000CF92DF92EF92FF920F931F93CF938C0151
:10385000C62F0E948118C090530BD090540BE0905B
:10386000550BF090560BC8010E94C117C701B60155
:103870000E9448178AE00E94BC160E940C1C019608
:10388000E1F78C2F0E94CF171092580B1092570B14
:10389000CF911F910F91FF90EF90DF90CF900895FF
:1038A0000F931F93CF93DF938C01EB018091D90B82
:1038B0008330C0F00E948118C8010E94C1178FEAAE
:1038C00099E10E94C1178DEA99E10E94C11760E059
:1038D00070E0CB010E942D178AE00E94BC168AE09E
:1038E0000E94BC160E94260FA8958091D80B8111CA
:1038F0000CC081E08093D80B82E08093D90B0E94AA
:10390000260F60E0CE010E94711BDF91CF911F91C5
:103910000F9108958F929F92AF92BF92CF92DF92B4
:10392000EF92FF920F931F93CF93DF93B4E4A0E045
:103930006A2F70E0AB014B0F511D55954795411112
:1039400019C0E7E2F7E065917491072E000C880B2F
:10395000990B0E947972DF91CF911F910F91FF9087
:10396000EF90DF90CF90BF90AF909F908F90089591
:10397000B42FE0CF4A1711F0B41303C0E3E3F8E02B
:10398000E2CF9A0121503109220F331F220F331F3A
:10399000F901EB5DF84FE590F490F901E75DF84F20
:1039A000C591D4918E159F0518F3A42FC817D90778
:1039B00008F4BECFF901E95DF84F05911491F901C2
:1039C000E55DF84FC590D4908E199F09BC0190E039
:1039D00080E00E9477724B015C01B601601B710BA5
:1039E000072E000C880B990B0E9479729B01AC0189
:1039F000C501B4010E94D8724B015C01CE19DF09E8
:103A0000BE0190E080E00E9477729B01AC01C5018D
:103A1000B4010E94C3776B017C01B801110F880BC0
:103A2000990B0E9479729B01AC01C701B6010E94FB
:103A3000C97691CFCF93DF93A8958091DE0B9091BB
:103A4000DF0B0E948A1C6093E00B7093E10B809364
:103A5000E20B9093E30B80917F03909180030E948F
:103A6000390F609381037093820380938303909353
:103A70008403C091DE0BD091DF0B80910B029091FB
:103A80000C02C817D90730F46BEB75E088EC95E0B1
:103A90000E94501C8091E40B9091E50B18161906BA
:103AA0007CF48091090290910A028C179D0740F4E2
:103AB0006AED75E087EE95E0DF91CF910C94501C94
:103AC000DF91CF9108952F923F924F925F926F9224
:103AD0007F928F929F92AF92BF92CF92DF92EF929E
:103AE000FF920F931F93CF93DF9300D000D000D0AD
:103AF0001F92CDB7DEB78091D90B81111AC0A8955E
:103B00002A960FB6F894DEBF0FBECDBFDF91CF91DE
:103B10001F910F91FF90EF90DF90CF90BF90AF90EB
:103B20009F908F907F906F905F904F903F902F90DD
:103B30000895809178038111E3CF21E020937803E9
:103B40008091DB03811103C010927803D9CF0E94CA
:103B50001A1D1092DB030E941A0F6D837E838F83E0
:103B60009887C090E00BD090E10BE090E20BF090D2
:103B7000E30B60910D0270910E02072E000C880B72
:103B8000990B0E9479729B01AC01C701B6010E949A
:103B9000297918160CF09CC160910F0270911002E7
:103BA000072E000C880B990B0E9479729B01AC01C7
:103BB000C701B6010E94727287FF8AC180917003AB
:103BC000811109C08CED9BE090936F0380936E038D
:103BD00031E03093700340916E0350916F035A8728
:103BE0004987DA0118966D917C91072E000C880B9D
:103BF000990B0E9479726B017C0120E030E0A901F1
:103C00000E9472728823D1F0A985BA8514962D91ED
:103C10003D914D915C91179729833A834B835C8347
:103C2000C701B6010E94C8764B015C0120E030E07C
:103C300040E251EC0E94727287FF08C081E0E98582
:103C4000FA858387C12CD12C7601DCC020E030E0DE
:103C500040E251E4C501B4010E942979181664F4C8
:103C600081E0A985BA851B968C93C12CD12C9FE746
:103C7000E92E93E4F92EC6C0E985FA858385882369
:103C800049F013861486158616861786148E158EAF
:103C9000168E178EA985BA8594964D905D906D907D
:103CA0007C9097971C962D913D914D915C911F971B
:103CB000C501B4010E94C976F62EE72ED82EC92E72
:103CC00020E030E0A9010E94727287FDFCC0A301D0
:103CD000920160E070E08FE793E40E94C377162FB3
:103CE000072F382E292E2F2D3E2D4D2D5C2D0E9475
:103CF000727287FF02C0780161018F2D9E2DAD2D5C
:103D0000BC2DE985FA8584879587A687B78720A18A
:103D100031A142A153A1C501B4010E94D8724B0147
:103D20005C01A985BA8554968D929D92AD92BC9204
:103D300057972F2D3E2D4D2D5C2DC301B2010E94B2
:103D4000D8722B013C01E985FA85408E518E628E36
:103D5000738EC48CD58CE68CF78C29813A814B818B
:103D60005C8160897189828993890E94C876A9855E
:103D7000BA8598962D913D914D915C919B970E94AB
:103D8000D872A70196010E94C87620ED3CEC4CE465
:103D90005DE30E94D872A70196010E94C9766B016B
:103DA0007C01E985FA85C48ED58EE68EF78E298151
:103DB0003A814B815C81208B318B428B538BA301E9
:103DC0009201C501B4010E94C976A70196010E9423
:103DD000C97620E030E0A9010E94C9766B017C0120
:103DE00020E030E0A9010E94727287FD2BCF20E015
:103DF00030E04FE753E4C701B6010E942979181655
:103E00000CF433CFC701B6010E94357875956795DC
:103E10006093E60B80916A0390916B03A0916C0311
:103E2000B0916D032D813E814F815885281B390B40
:103E30004A0B5B0BDA01C901B7FD86CE8D819E81ED
:103E4000AF81B88588579C4EAF4FBF4F80936A03B0
:103E500090936B03A0936C03B0936D03C0908103A8
:103E6000D0908203E0908303F090840320E030E060
:103E700040EA50E4C701B6010E94297987FD2CC0B1
:103E800020E030E046E153E4C701B6010E947272BF
:103E9000181614F16091850370918603072E000CAB
:103EA000880B990B0E947972A70196010E94C8762F
:103EB00020E030E0A9010E94297918165CF48FE710
:103EC0008093870341CEF12CE12CD12CC12C15CF4E
:103ED00060E09ECF80E0F4CF1092870380910201D2
:103EE00080728093000130CECF92DF92EF92FF92EA
:103EF0006B017C0183E3C816D104E104F10470F086
:103F000082E3C81AD108E108F10862E370E080E0BA
:103F100090E00E94E70E0E94631DECCFC701B6013E
:103F20000E94E70EFF90EF90DF90CF900C94631DFE
:103F300080911604882331F062E070E080E090E028
:103F40000C94741F0895DF92EF92FF920F931F93CA
:103F5000CF93DF931F92CDB7DEB78C01D42E7C01B7
:103F6000E60EF71E8091D60B9091D70B0E943F76FC
:103F70008983DD2011F0F8018083CE0101960E9433
:103F80003A0D8091D60B9091D70B01969093D70B59
:103F90008093D60B0F5F1F4F0E151F0519F780E09A
:103FA0000F90DF91CF911F910F91FF90EF90DF90D5
:103FB00008954091DA0321E0422764E070E00C9418
:103FC000A31F4091DA0321E0422761E070E00C94E6
:103FD000A31F4091DA0321E042276CE070E00C94CB
:103FE000A31F4091DA0321E0422761E070E00C94C6
:103FF000A31F4091DA0321E0422768E070E00C94AF
:10400000A31F4091DA0321E042276CE070E00C949A
:10401000A31F41E061E070E00C94A31F41E062E067
:1040200070E00C94A31F4091DA0321E042270C9426
:10403000A31F9F92AF92BF92CF92DF92EF92FF9217
:104040000F931F93CF93DF931F92CDB7DEB78C01F1
:104050006C01C60ED71EF12CE12CC016D10609F456
:104060004EC0A090D60BB090D70BF80191908F0165
:104070009982C5010E943F76981699F1692DC50174
:104080000E944776FFEFEF1AFF0AC7018F77992743
:10409000892B01F162E070E080E090E00E94E70E81
:1040A000C5010E943F7699818917D9F00E94851831
:1040B00083E999E10E94C11781E00F90DF91CF91D0
:1040C0001F910F91FF90EF90DF90CF90BF90AF9036
:1040D0009F90089562E070E080E090E00E94741F7D
:1040E000DFCFCE0101960E943A0D8091D60B9091C0
:1040F000D70B01969093D70B8093D60BAECF80E071
:10410000DCCF64E070E00C94192062E070E00C9465
:10411000192061E070E00C94192061E070E00C94CB
:1041200019206CE070E00C941920CF92DF92EF928E
:10413000FF920F931F93CF93DF93CDB7DEB7C9588C
:10414000D1090FB6F894DEBF0FBECDBFC358DF4F05
:10415000188219821A821B82CD57D0408091DF02CB
:104160009091E002A091E102B091E202CF57DF4FBF
:1041700088839983AA83BB83C158D04084E690E0AA
:104180009093D70B8093D60B1092DB0B1092DA0B27
:1041900064E070E0CE018F579F4F0E9419208091FC
:1041A000D60B9091D70B02969093D70B8093D60B9A
:1041B0001092DB0B1092DA0B83E592E0CB57DF4FC6
:1041C00099838883C558D040CE018B579F4F0E945A
:1041D000852081E0C757DF4F8883C958D040CE0182
:1041E00087579F4F0E948D2068E470E083E794E03A
:1041F0000E94192080E1EAE5F2E08E010F5F1F4F77
:10420000D80101900D928A95E1F760E170E0C80154
:104210000E94192087E394E00E94812080EE93E0C1
:104220000E9491207E018DE6E80EF11C8FEFF701D0
:104230008083C7010E948D2019821A821B821C82F2
:10424000C8010E94812019821A821B821C82C80127
:104250000E948120C358DF4F188219821A821B8264
:10426000CD57D04083E0EA968FAFEA97F70180837D
:10427000CE0183589F4F0E948120CE0187589F4FC7
:104280000E948D20C7010E948D2080E09CE09A83CF
:104290008983C8010E9485203AE0D32EDA94DD207C
:1042A00031F0CE0183589F4F0E948120F7CF8CE0E0
:1042B000F80111928A95E9F7C8010E949120C3582C
:1042C000DF4F188219821A821B82CD57D0402AE014
:1042D000D22EDA94DD2031F0CE0183589F4F0E9418
:1042E0008120F7CF83E0C857DF4F8883C858D0407C
:1042F000C957DF4F8883C758D040CE0188579F4F9A
:104300000E948D20CE0189579F4F0E948D2080E012
:104310009CE0EB969FAF8EAFEB97CE0187589F4FF7
:104320000E94852088E0F701982F11929A95E9F76D
:10433000F80111928A95E9F768E070E0C7010E94E0
:10434000192068E070E0C8010E941920C358DF4FAF
:10435000188219821A821B82CD57D0409AE0C92E4A
:10436000D12CF1E0CF1AD10831F0CE0183589F4F04
:104370000E948120F6CF1982DD24DA94F701D082E1
:10438000C8010E948920C7010E948D201982C8019E
:104390000E9489208091FC0B9091FD0BA091FE0B57
:1043A000B091FF0B89839A83AB83BC8321E732EB07
:1043B00047E25EE36091000C7091010C8091020C69
:1043C0009091030C0E94C3776D837E838F839887BF
:1043D00021E732EB47E25EE36091040C7091050C3B
:1043E0008091060C9091070C0E94D87269877A8799
:1043F0008B879C8780E090E0A0E8BFE38D879E8755
:10440000AF87B88B198A1A8A1B8A1C8A64E170E00C
:10441000C8010E94192084E190E09A838983C80131
:104420000E9485208CE0EAE6F2E0D80101900D922E
:104430008A95E1F76CE070E0C8010E9419208CE0D9
:10444000EAE6F2E0D80101900D928A95E1F76CE07E
:1044500070E0C8010E9419201982C8010E948D20B5
:104460008FE78983C8010E948D20D982C8010E94EC
:104470008D2085E0E6E7F2E0D80101900D928A9563
:10448000E1F765E070E0C8010E9419201982C801B7
:104490000E94892080E2EBE7F2E0D80101900D92C2
:1044A0008A95E1F760E270E0C8010E941920F701E7
:1044B0001082C7010E94892080EF93E00E9489202A
:1044C0008CEE93E00E948120C358DF4F188219823E
:1044D0001A821B82CD57D040CE0183589F4F0E9435
:1044E000812082E1F80111928A95E9F762E170E09A
:1044F000C8010E94192084E2EBE9F2E0D8010190A2
:104500000D928A95E1F764E270E0C8010E941920DB
:1045100080E1D82EF8018D2D11928A95E9F760E19E
:1045200070E0C8010E9419201A82198262E070E0CE
:10453000C8010E941920C358DF4F188219821A82BD
:104540001B82CD57D040CE0183589F4F0E948120BF
:10455000F8011192DA94E9F760E170E0C8010E9475
:1045600019208CE6F80111928A95E9F76CE670E063
:10457000C8010E941920F701108211821282138251
:10458000148215821682178268E070E0C7010E94CB
:1045900019208CE0F70111928A95E9F7C957DF4F8E
:1045A0001882C758D04080E090E0A0E4B0E4ED96D7
:1045B0008CAF9DAFAEAFBFAFED97C7010E9491200A
:1045C000CE0189579F4F0E948D20CE0187589F4F63
:1045D0000E9481200091D60B1091D70B045611092F
:1045E0008091DA0B9091DB0BF7019183808384E655
:1045F00090E09093D70B8093D60B64E070E087ED4A
:1046000092E00E941920C7010E9485200E9485180F
:10461000B8018AE394E00E94F717F701C080D180C7
:10462000F12CE12C8DE294E00E94C117C701B60184
:104630000E94C3168AE294E00E94C11790E00335FD
:10464000124039F00E94811888EB94E00E94C11753
:1046500092E081E0911180E0C757DF4F0FB6F894E8
:10466000DEBF0FBECDBFDF91CF911F910F91FF90A5
:10467000EF90DF90CF9008958091210490912204D3
:10468000009731F04AE050E070E060E00C94CD6FAC
:1046900060E070E0CB0108950E943C23CB010895B7
:1046A000CF93DF93EB010E943214882321F0DF9136
:1046B000CF910C944C23CE01DF91CF9108950E94AD
:1046C0003C2397FD0CC00E943C236F3F7105810580
:1046D000910509F034F40E943C23862F089580E070
:1046E00008958FEF0895CF93DF93D82FC62F0E94A0
:1046F0003214882391F08091210490912204892B17
:1047000029F4C1E08C2FDF91CF9108950E945F239F
:10471000C1E08111F7CFC0E0F5CF8D2F0E94E413E7
:10472000882381F3EECFCF9384E50E943214C0E05A
:10473000882309F10E945F23C82F1816E4F40E9411
:1047400085188DE40E94BC16609133047091340486
:1047500090E080E00E94C31682E693E00E94C117B9
:104760006C2FCC0F770B880B990B0E942D178AE0CA
:104770000E94BC16CFEF8C2FCF9108954F925F927D
:104780006F927F92AF92BF92CF92DF92EF92FF92A1
:104790000F931F93CF93DF931092F2031092F103C4
:1047A0002FE32093350410923404109233041092B6
:1047B0001D0410921E0410921F04109220049C01EC
:1047C000E90198812F5F3F4F9032D1F39E34C9F4B5
:1047D000898190ED980F9A3020F08D3211F08B3254
:1047E00081F422969E012F5F3F4F888180538A304B
:1047F00008F46EC09E012F5F3F4F8881803209F41C
:1048000069C0D093CC04C093CB047E012FEFE21A91
:10481000F20A18816AE270E0C7010E94157A0097D7
:1048200031F0FC01319780818032E1F311821D3437
:1048300021F0143511F01734E1F5F70180819FEF75
:10484000E91AF90A8032C9F380538A3090F510933F
:10485000350490E080E06AE0AF014F5F5F4F689FF2
:104860009001699F300D1124C901C0972081820FEA
:10487000911D27FD9A95FA01208120532A3060F37B
:104880009093340480933304DF0131962C912032CD
:10489000D9F31D3459F58E31910539F0E8F487319B
:1048A000910519F08C31910509F5B093F203A093AD
:1048B000F103DF91CF911F910F91FF90EF90DF9067
:1048C000CF90BF90AF907F906F905F904F90089582
:1048D000E90188CFE9018ECF8537910538F0873718
:1048E000910518F3803AE3E09E07F9F240E050E0CA
:1048F000BA0130E020E0C12CD12C7601C394FD0137
:1049000031960C91002309F48CC00132F1F41D346E
:10491000E1F480329105C9F440931D0450931E04C4
:1049200060931F0470932004F093F203E093F1036B
:1049300063E270E0CF010E94157A009709F4B9CFC5
:10494000FC011082B6CFDF01DACF01540A3108F042
:1049500063C0DF01BD90D0E2AD2EBA1499F0A0ED96
:10496000AB0DAA3008F1AEE2BA120EC0A181A0537D
:10497000AA30D0F02115310519F49F0121503109D9
:10498000B12C16C0FD01E5CFADE2AA2EBA1419F084
:10499000ABE2BA12EFCFA181B0EDBA0FBA3020F07E
:1049A000AE3241F7A281E3CFBE2EBC1A309741F35D
:1049B000A02FB0E02601370104C0440C551C661C32
:1049C000771C0A95D2F74429552966297729A351DE
:1049D000BD4FBC92A081A154AA3108F4B4CFDF012D
:1049E0000191002309F48BCFD0EDBD2EB00ED9E09C
:1049F000AD2EAB14A0F7D3EDBD2EB00EAA24A39418
:104A0000AB1468F70B3259F3FD0131960C9100326B
:104A100009F075CFDF01F8CF21153105D9F69D01D9
:104A2000D9CF3093F2032093F10340931D045093A8
:104A30001E0460931F04709320043BCF4F925F923B
:104A40006F927F928F929F92AF92BF92CF92DF929E
:104A5000EF92FF92CF93DF93EC012091930430917A
:104A6000940440919504509196046C857D858E85C3
:104A70009F850E94D8720E9436796B017C0120913B
:104A80008F04309190044091910450919204688574
:104A900079858A859B850E94D8720E9436794B0160
:104AA0005C0120918B0430918C0440918D045091D5
:104AB0008E046C817D818E819F810E94D8720E94BC
:104AC00036792B013C012091870430918804409174
:104AD000890450918A04688179818A819B810E942E
:104AE000D8720E9436796093630C7093640C809343
:104AF000650C9093660C4092670C5092680C609223
:104B0000690C70926A0C80926B0C90926C0CA09263
:104B10006D0CB0926E0CC0926F0CD092700CE09243
:104B2000710CF092720C90915D0C80915E0C981754
:104B300081F0DF91CF91FF90EF90DF90CF90BF9009
:104B4000AF909F908F907F906F905F904F900C945C
:104B5000632C0E949F2C0E943611C82F83E69CE094
:104B60000E94C90FCC2381F0DF91CF91FF90EF908D
:104B7000DF90CF90BF90AF909F908F907F906F907D
:104B80005F904F900C944311DF91CF91FF90EF9085
:104B9000DF90CF90BF90AF909F908F907F906F905D
:104BA0005F904F900895CF93DF93CDB7DEB76097B6
:104BB0000FB6F894DEBF0FBECDBF80E1EAEBFBE09D
:104BC000DE01119601900D928A95E1F7CE010196D2
:104BD0000E941E2560960FB6F894DEBF0FBECDBFB3
:104BE000DF91CF9108950F931F93CF93DF9307E841
:104BF00014E0C0E6D4E0F801219131914191519146
:104C00008F0160E070E080E89FE30E94C3776993C2
:104C1000799389939993F4E0C037DF0761F70E9495
:104C2000D325DF91CF911F910F910C9481102F927A
:104C30003F924F925F926F927F928F929F92AF922C
:104C4000BF92CF92DF92EF92FF920F931F93CF9379
:104C5000DF9300D000D01F92CDB7DEB78091BA0BA2
:104C60009091BB0BA091BC0BB091BD0B8A839B8331
:104C7000AC83BD834090BE0B5090BF0B6090C00BC7
:104C80007090C10B8090C20B9090C30BA090C40B8E
:104C9000B090C50BC090C60BD090C70BE090C80B6E
:104CA000F090C90B0E94811081E08093E70B0E9475
:104CB000CF100EE114E0A7E1B2E0BF83AE8382E142
:104CC000282E84E0382E198289810E94FA11F80179
:104CD00085919591A591B491EE81FF8181939193F6
:104CE000A193B193FF83EE83F10185919591A591F5
:104CF000B491EE81FF8180879187A287B387F98184
:104D0000FF5FF9830C5F1F4F84E0280E311CF330E6
:104D1000D9F60E94F3252A813B814C815D81609107
:104D2000BA0B7091BB0B8091BC0B9091BD0B0E9494
:104D3000727281112AC0A30192016091BE0B709121
:104D4000BF0B8091C00B9091C10B0E9472728111B8
:104D50001CC0A50194016091C20B7091C30B80919E
:104D6000C40B9091C50B0E94727281110EC0A701F5
:104D700096016091C60B7091C70B8091C80B909102
:104D8000C90B0E9472728823D1F027960FB6F8944F
:104D9000DEBF0FBECDBFDF91CF911F910F91FF906E
:104DA000EF90DF90CF90BF90AF909F908F907F90CB
:104DB0006F905F904F903F902F900C943E192796E4
:104DC0000FB6F894DEBF0FBECDBFDF91CF911F911C
:104DD0000F91FF90EF90DF90CF90BF90AF909F909A
:104DE0008F907F906F905F904F903F902F9008959D
:104DF000A3E7B4E090E080E0FC01EE58FA4F459163
:104E00005591659174914D935D936D937D93FC01E4
:104E1000EE59FA4F459155916591749150964D9385
:104E20005D936D937C935397FC01EE5AFA4F459135
:104E300055916591749190964D935D936D937C938C
:104E40009397049680319105B9F680E29EE4A0E044
:104E5000B0E08093830490938404A0938504B0937E
:104E6000860480E090E0A6E9B3E48093A7049093E1
:104E7000A804A093A904B093AA048093AB049093D0
:104E8000AC04A093AD04B093AE048093AF049093B0
:104E9000B004A093B104B093B2041092B304109282
:104EA000B4041092B5041092B6041092B704109294
:104EB000B8041092B9041092BA0484EF9DEFA4E5EF
:104EC000BCE38093370490933804A0933904B093E3
:104ED0003A041092E0031092E1031092E203109260
:104EE000E3031092E4031092E5031092E60310929C
:104EF000E7031092E8031092E9031092EA0310927C
:104F0000EB038AE999E9A1EBB1E48093FC0B909360
:104F1000FD0BA093FE0BB093FF0B81EE9CE1A5E38C
:104F2000BEE38093000C9093010CA093020CB0930D
:104F3000030C83E397E0AEE2B4E48093040C909317
:104F4000050CA093060CB093070C1092F00380E0C0
:104F500090E0A0EEBFE38093EC039093ED03A09369
:104F6000EE03B093EF0310921604109215040E9402
:104F7000981F0E9417260E9485188CE494E00C94D8
:104F80006C1B4F925F926F927F928F929F92AF9223
:104F9000BF92CF92DF92EF92FF920E9436119091D2
:104FA0005E0C90935D0C90935C0C90935B0C94E67C
:104FB00090935A0C21ED33E03093710420937004E8
:104FC00081110E94431181E0809369030E949F2C0C
:104FD00080E00E9452112B013C014092100350923C
:104FE0001103609212037092130381E00E94521128
:104FF0004B015C018092140390921503A09216035A
:10500000B092170382E00E9452116B017C01C092A2
:105010001803D0921903E0921A03F0921B0383E065
:105020000E9452114092BA0B5092BB0B6092BC0B83
:105030007092BD0B8092BE0B9092BF0BA092C00BE2
:10504000B092C10BC092C20BD092C30BE092C40BC2
:10505000F092C50B6093C60B7093C70B8093C80B7F
:105060009093C90BFF90EF90DF90CF90BF90AF90DF
:105070009F908F907F906F905F904F900C94D3256E
:105080002F923F924F925F926F927F928F929F9258
:10509000AF92BF92CF92DF92EF92FF920F931F9346
:1050A000CF93DF938091CD04843008F066C111E680
:1050B00001E08091CD04843008F05FC18091D10A75
:1050C0009091D20A891B8F7709F457C10E940C1C5A
:1050D00097FF0BC00E9481188FE599E10E94C117CC
:1050E0008091D10A8093D20AE4CF8A3019F08D30B2
:1050F00009F006C11092B90B8091570B9091580B93
:10510000FC01ED5AF44F1682892B19F40E94631D9D
:10511000D0CF1092580B1092570BC9E5DBE0FE017F
:105120008191803209F449C08E3409F07DC06AE56E
:1051300079E1CE010E9428727C01892B41F06EE456
:1051400070E0CE0104960E94157A009709F4CE0112
:105150004AE050E070E060E001960E94CD6F4B01A4
:105160005C018091530B9091540BA091550BB09121
:10517000560BAC01BD014F5F5F4F6F4F7F4F8416E1
:105180009506A606B706D9F0EF28C9F4AC01BD0113
:10519000415051096109710984169506A606B706A2
:1051A00034F088159905AA05BB050CF082CF60E0A4
:1051B00087E299E10E94201C7CCFEF01B0CF6AE228
:1051C00070E0CE010E94357A9C01009709F1982F7A
:1051D0009C1BF12C992339F09150FE01E90FF11D30
:1051E0008081F826F7CF4AE050E070E060E0C90126
:1051F00001960E94CD6FCF2CD12CF12CE12C6C1597
:105200007D058E059F0541F060E088E099E1D2CFF1
:1052100060E08EED98E1CECF8092530B9092540BCC
:10522000A092550BB092560B8091D90B8130B9F4F6
:1052300067E470E0CE010E94157A009781F04AE0A1
:1052400050E070E060E001960E94CD6F643071051F
:105250008105910520F487E698E10E94C1178881B5
:105260008D34C1F48B818233E9F1883359F0803376
:1052700089F48981843371F48A81813359F40E94DD
:10528000C12708C08A81803329F48981813311F4D0
:10529000109243028091590B8B3309F40ACF80910D
:1052A000CD04843008F005CF8091CF04819FC001E8
:1052B000112469E57BE080539B4F0E94207A809106
:1052C000CF04189FF0011124E05DFA4F10828F5F28
:1052D000843098F48093CF048091CD048F5F8093C5
:1052E000CD04E7CE8A818133A9F68981813391F695
:1052F00061E089E598E10E94711B1092CF04ECCF28
:105300009091B90B913009F4D4CE9430B0F0945010
:105310009093B90B8830C9F48091570B9091580B3A
:10532000009709F4C6CE01979093580B8093570BC2
:105330008D5A944FFC011682BCCE8C35C9F49C5F0B
:105340009093B90B943009F4B4CE2091570B30915F
:10535000580BA9014F5F5F4F5093580B4093570B69
:105360002D5A344FF90186834F3551051CF4A1CED7
:105370008B3381F60093B90B9CCE0E941A0F6B0100
:105380007C018091590690915A06A0915B06B091DC
:105390005C060097A105B10571F140915D06509141
:1053A0005E0660915F0670916006840F951FA61FD0
:1053B000B71F97018601081B190B2A0B3B0BD9015C
:1053C000C801B7FD18C00E94811886E498E10E94C8
:1053D000C117C091CB04D091CC048BE198E10E941D
:1053E000C117CE010E94AD178AE00E94BC1660E092
:1053F00090E080E080CF90915D0C80915E0C9817DA
:1054000041F0C0925D06D0925E06E0925F06F09297
:1054100060068090440290904502A0904602B090B1
:10542000470281149104A104B10429F0981709F4EA
:1054300046C0109258068091540690915506A0914E
:105440005606B0915706A7019601281B390B4A0B47
:105450005B0BDA01C901B7FD8AC190915D0C8091A7
:105460005E0C20914202981709F450C0E0915E0C46
:1054700037E4E39FF0011124E955F94F8081C0E042
:10548000281719F080934202C1E080915E0CD0E0B1
:1054900017E490915D0C981709F443C0189FF00130
:1054A0001124EF59F94F41A152A163A174A1452BD9
:1054B000462B472B09F0D1E00E947C11EACF0E94D5
:1054C0001A0F00915D0610915E0620915F063091E3
:1054D0006006800E911EA21EB31E681979098A0902
:1054E0009B0997FDA6CF809158068111A4CF81E03A
:1054F0008093580680E00E942F1081E00E942F10B8
:1055000082E00E942F100E94201095CF8091CA0443
:10551000C0E0281719F080934202C1E00E942010D9
:1055200002C0DD23D9F3CC23E9F00E941A0F2091A9
:10553000420270E060E0222391F030E050E040E071
:105540002150310941095109AFEFB0E00E94A67620
:105550002EEF30E040E050E00E948776B90189E00C
:105560000E9484158091C904882309F4F3C0009136
:10557000400210914102C80102972091E40B309142
:10558000E50B281739070CF4E5C030905E0C812C30
:10559000912CA12CB12C87E4282E80915D0C8315D1
:1055A00009F453C0832D90E0289EF001299EF00D50
:1055B0001124EF59F94F458956896789708D452B1C
:1055C000462B472B81F4418D528D638D748D452B75
:1055D000462B472B41F4458D568D678D70A1452B89
:1055E000462B472B69F1289EE001299ED00D1124FE
:1055F000CF59D94F69A17AA18BA19CA10E94777242
:105600002B013C016DA17EA18FA198A50E9477720C
:105610009B01AC01C301B2010E94C37729813A8189
:105620004B815C810E94D8723B01D82FC92F940115
:10563000A5010E94297918161CF44301AD2EBC2E39
:10564000832D0E947C11382EA8CFB801110F880B32
:10565000990B0E9479728B01D82FC92F20913C029F
:1056600030913D0240913E0250913F02B401C5018C
:105670000E94D87298014D2F5C2F0E94C9763B0181
:105680004C01A0903A02B0903B029B01AC01B801E2
:105690008D2F9C2F0E9429791816ACF0B501BB0CF8
:1056A000880B990B0E9479728B01D82FC92F9B010F
:1056B000482F592FB301C4010E94297918161CF0F4
:1056C0008301D82DC92D8090C5049090C604A09068
:1056D000C704B090C80498014D2F5C2FC501B401D8
:1056E0000E9429791816E4F420E037ED43EA5CE3E0
:1056F000B8018D2F9C2F0E94D8722B013C0128E409
:1057000031EE4AE75FE3C501B4010E94D8729B0104
:10571000AC01C301B2010E94C9768B01D82FC92FF9
:10572000C801AD2FBC2F8093C5049093C604A093ED
:10573000C704B093C804B8018D2F9C2F0E94357800
:10574000643041E0740714F064E071E07093E50B9D
:105750006093E40B54E6C50ED11CE11CF11CC09211
:105760005406D0925506E0925606F09257060E94D3
:10577000631D8091D90B882309F492C00E941A0FEF
:105780006B017C01C0913902CC23F1F08091BF0400
:105790008823D1F04091BB045091BC046091BD04BA
:1057A0007091BE0497018601041B150B260B370B65
:1057B000B901A80177FD1AC0833009F46CC00CF060
:1057C0005BC081300CF060C02C2F30E0A8EEB3E05D
:1057D0000E94B976C60ED71EE81EF91EC092BB0401
:1057E000D092BC04E092BD04F092BE048091C40447
:1057F000882309F455C00E941A0F6B017C01809127
:10580000C0049091C104A091C204B091C304A70147
:105810009601281B390B4A0B5B0BDA01C901B7FD56
:105820003FC02091C40430E0A8EEB3E00E94B976F6
:10583000C60ED71EE81EF91EC092C004D092C10445
:10584000E092C204F092C30480E00E94FB1A8AE056
:10585000DF91CF911F910F91FF90EF90DF90CF904C
:10586000BF90AF909F908F907F906F905F904F9080
:105870003F902F900C94BC16843009F0A5CF0E9465
:1058800085188AED97E104C00E94851889E098E1A7
:105890000E94C11799CF0E94851882EF97E1F8CF37
:1058A000DF91CF911F910F91FF90EF90DF90CF90FC
:1058B000BF90AF909F908F907F906F905F904F9030
:1058C0003F902F900895CF93DF9390915E0C80913D
:1058D0005D0C891730F0891B8F3029F40E94402815
:1058E000F4CF805FF8CF80915D0C0E947C11A09175
:1058F0005D0C97E4A99FD0011124FD01EF59F94FE8
:10590000EF0119929A95E9F7908198609083AA58CF
:10591000B94F90E1E3E6FCE001900D929A95E1F732
:1059200020915D0C90915E0C291303C094E6909336
:105930005A0C80935D0CDF91CF910C9443119091A0
:105940005D0C80915E0C981306C08091700490915C
:105950007104892B19F00E944028F1CF089590918D
:105960005D0C80915E0C981308C08091700490913A
:105970007104892B11F40C945B100E944028EFCF26
:105980002F923F924F925F926F927F928F929F924F
:10599000AF92BF92CF92DF92EF92FF920F931F933D
:1059A000CF93DF93CDB7DEB763970FB6F894DEBF22
:1059B0000FBECDBF9091720493FD46C1898383E5EC
:1059C0000E9432148887882309F436C10E944C2330
:1059D0008C3891050CF051C1909386038093850318
:1059E000698131E0632789810E94A413498144239E
:1059F00009F42AC151E0509343021A821B821C828F
:105A00001D8219861A861B861C861E868CE38F874C
:105A10009CE1988BA6E4A98B312C212CB0E8BA8BA1
:105A20002FEB2B8B198231E03D87812C912C540177
:105A30006091850370918603072E000C880B990BEB
:105A40000E9479727B018C01232D322D4A895B895A
:105A50000E9472728823B9F02091810330918203F1
:105A600040918303509184038885B701811108C157
:105A7000C8010E947272881F8827881F89833E2C64
:105A80002F2C0A8B1B8B0E941A0F6B017C01DC01EF
:105A9000CB0129853A854B855C85821B930BA40B32
:105AA000B50BB7FD2EC0D701C60188519C4FAF4F33
:105AB000BF4F89879A87AB87BC8780E00E94FB1A1B
:105AC00083E993E00E94C11781149104A104B104F9
:105AD00009F4E8C0C501B401605F784D8F4F9F4F56
